:020000040800F2
:10000000780A002035020008D30C0008910C000883
:10001000D10C00082B040008951200080000000015
:10002000000000000000000000000000EB110008CC
:100030002D04000800000000E9110008ED1100087F
:100040004F0200084F0200084F0200084F0200084C
:100050004F0200084F0200084F0200084F0200083C
:100060004F0200084F0200084F0200084F0200082C
:100070004F0200084F0200084F0200084F0200081C
:100080004F0200084F0200084F0200080000000065
:100090000000000000000000000000004F02000807
:1000A0004F0200084F0200084F0200084F020008EC
:1000B0004F0200084F0200084F0200084F020008DC
:1000C0004F0200084F0200084F0200084F020008CC
:1000D0004F0200084F0200084F0200080000000015
:1000E0004F0200084F0200084F0200080000000005
:1000F0000000000000000000000000004F020008A7
:10010000000000004F0200084F0200084F020008E4
:1001100000000000000000000000000000000000DF
:100120004F0200084F0200084F0200084F0200086B
:100130004F02000800000000000000000000000066
:100140000000000000000000000000004F02000856
:100150004F0200084F0200084F0200084F0200083B
:100160004F0200084F0200080000000000000000DD
:10017000000000000000000000000000000000007F
:10018000000000004F020008000000000000000016
:100190004F02000800F002F800F03CF80AA090E8D6
:1001A000000C82448344AAF10107DA4501D100F032
:1001B00031F8AFF2090EBAE80F0013F0010F18BFC3
:1001C000FB1A43F001031847C0300000E030000084
:1001D000103A24BF78C878C1FAD8520724BF30C873
:1001E00030C144BF04680C60704700000023002445
:1001F00000250026103A28BF78C1FBD8520728BF37
:1002000030C148BF0B6070471FB501F0EFF81FBD4C
:1002100010B510BD00F0CFF81146FFF7F5FF01F063
:100220004BF800F0EDF803B4FFF7F2FF03BC00F069
:10023000F5F800000948804709480047FEE7FEE757
:10024000FEE7FEE7FEE7FEE7FEE7FEE7FEE7FEE786
:1002500004480549054A064B70470000851200080E
:100260009501000878040020780A00207806002014
:100270007806002053EA020C00F069802DE9F04B6B
:100280004FF00006002B1FBFB3FA83F503FA05F405
:1002900024FA05F65E4012BF1643B2FA82F502FA5E
:1002A00005F4C5F120051EBF22FA05FC44EA0C0442
:1002B000203556EA044C4FEA144418BF641C4FF032
:1002C00000084FF00009904271EB030C39D300296C
:1002D00019BFB1FA81F701FA07F6B0FA80F700FA10
:1002E00007F6C7F120071EBF20FA07FC46EA0C06F6
:1002F0002037B6FBF4FCA7EB0507103F07F01F0BF8
:10030000CBF120060CFA0BFB2CFA06F644BFB346E1
:100310000026202FA4BF5E464FF0000B5BEA060CC0
:1003200008BF4FF0010B19EB0B09ABFB027C48EB4C
:100330000608C01B06FB02CC0BFB03CC71EB0C01C7
:10034000C1E70B46024641464846BDE8F08B13B56F
:100350004FF000004FF00001AFF30080BDE81C40FB
:1003600070474FF0000200B5134694469646203978
:1003700022BFA0E80C50A0E80C50B1F12001BFF45E
:10038000F7AF090728BFA0E80C5048BF0CC05DF8C4
:1003900004EB890028BF40F8042B08BF704748BF12
:1003A00020F8022B11F0804F18BF00F8012B704786
:1003B000704770477047754600F02CF8AE46050050
:1003C0006946534620F00700854618B020B5FFF770
:1003D0003FFFBDE820404FF000064FF000074FF010
:1003E00000084FF0000B21F00701AC46ACE8C00953
:1003F000ACE8C009ACE8C009ACE8C0098D4670475C
:1004000010B50446AFF300802046BDE81040FFF76A
:100410000ABF00000048704714040020014918205A
:10042000ABBEFEE7260002007047FEE77047000003
:1004300070B5044600F004F90546601C02D004487B
:100440000078044400F0FCF8401BA042FAD370BDD1
:10045000040000202DE9F84FDFF8B8A100220124A4
:100460000AF1040B03254FF00F090BF1040E00BF36
:100470000B6804FA02F63340B34273D10F7907F0E8
:100480000307012F01D0022F16D187684FEA4208D7
:1004900005FA08FC27EA0C07D1F80CC00CFA08FC96
:1004A0004CEA070CC0F808C04768B7430E79C6F39A
:1004B000001696403E4346600E79F643B6070DD0CF
:1004C000C768560005FA06FC27EA0C07D1F808C0F1
:1004D0000CFA06FC4CEA070CC0F80CC00E7906F0CA
:1004E0000306022E10D1D60800EB8608D8F820604B
:1004F00057074FEAD76C09FA0CF7BE430F6907FAA2
:100500000CF73743C8F8207006684FEA420C05FA2A
:100510000CF7BE430F7907F0030707FA0CF73743D0
:1005200007604E6816F4403F6DD03B4E376847F485
:1005300080473760366822F0030706F4804600964D
:10054000364E07EB060CDCF8086897073F0F09FAF0
:1005500007F826EA0806DFF8C880404503D14FF0C7
:1005600000081EE04FE0DFF8BC80404502D14FF0AC
:10057000010816E0DFF8B080404502D14FF00208D4
:100580000FE0DFF8A880404502D14FF0030808E0F3
:10059000DFF89C80404502D14FF0040801E04FF0A5
:1005A000070808FA07F848EA0608CCF80888DAF8D5
:1005B00000605746D1F804C09E435FEACC3C00D5AA
:1005C0001E433E60DBF800605F46D1F804C09E43E6
:1005D0005FEA8C3C00D51E433E60DEF80060774643
:1005E000D1F804C09E435FEACC2C00D51E433E6088
:1005F000084F0C373E68D1F804C09E435FEA8C2C4C
:1006000000D51E433E60521C102AFFF431AFBDE8F6
:10061000F88F0000003C01404438024000300140A7
:10062000000002400004024000080240000C0240AA
:10063000001002400AB1816170470904FBE7000025
:10064000014880687047000004000020024881686B
:100650000278114481607047040000200B4810B5F7
:10066000016841F400710160016841F4806101603A
:10067000016841F480710160032000F061F80F20EF
:1006800000F006F800F024F8002010BD003C024005
:1006900070B50D4D04464FF47A712878B1FBF0F037
:1006A0000A490968B1FBF0F000F0DEFA48B9102CF5
:1006B00007D200222146501E00F022F800206C6074
:1006C00070BD012070BD000004000020100000205B
:1006D0000A4808B5016841F480410160006800F4EF
:1006E000804000900548001F016841F08051016082
:1006F000006800F08050009008BD000044380240BF
:10070000F0B40E4B1B680C46C3F30223C3F107057C
:10071000042D00D90425191D072901D2002300E06A
:10072000DB1E012606FA05F1491E214099409E4034
:10073000761E16403143F0BC00F0ADBD0CED00E07C
:10074000064900F0070208684FF6FF03184040EA28
:100750000220034A10430860704700000CED00E0DF
:100760000000FA052DE9F0470E46050065D0DFF8D8
:100770001481D8F80000F7B200F00700B04207D2A9
:1007800088F80070D8F8000000F00700B04254D19B
:1007900028683D4C810712D5400703D5206840F4F6
:1007A000E05020602878000703D5206840F46040BE
:1007B00020602068A96820F0F000084320602878B5
:1007C000C0072DD0304968680839012812D00228A6
:1007D00013D0032811D00968890700292DDA216870
:1007E00021F0030101432160FFF72AFF814641F216
:1007F000883A0EE009688903EFE709688901ECE7A8
:10080000FFF71EFFA0EB0901514502D90320BDE807
:10081000F0872068696800F00C00B0EB810FEFD121
:10082000D8F80010404601F00701B14207D907701F
:10083000006800F00700B04201D00120E7E7287807
:10084000400705D52068E96820F4E050084320609F
:100850002878000706D52068296920F4604040EA1E
:10086000C100206000F018F82168084AC1F30311A4
:10087000515CC8400649086006480068FFF708FF59
:100880000020C4E7003C02400838024076320008ED
:100890001000002008000020154810B5006810F076
:1008A0000C02144813D01449042A0FD0082A0ED180
:1008B0000F4C241F2268236802F03F025B0207D519
:1008C0002068C0F38810A0FB010106E0084610BDB7
:1008D0002168C1F38811A1FB00010023FFF7CAFCC6
:1008E0002168C1F30141491C4900B0FBF1F010BD82
:1008F000083802400024F40040787D012DE9F84FCB
:1009000004006ED02078DFF84C93C007A9F10405ED
:100910004AD009F104000168C1F38101012908D01E
:100920000068C0F3810002280AD1D9F80000400213
:1009300006D52868800337D560680028E1D033E009
:100940006068B0F5803F10D0B0F5A02F286810D0B7
:1009500020F480302860286820F4802028606068B7
:10096000A8B1FFF76DFE06460DE0286840F4803020
:10097000F4E740F480202860F7E700BFFFF760FE4F
:10098000801B642873D828688003F7D50CE0FFF734
:1009900057FE064605E000BFFFF752FE801B6428A5
:1009A000F0D828688003F7D42078DFF8AC8280077D
:1009B0004FF0000A3ED5A748001D016811F00C0F4A
:1009C00008D00068C0F3810002280BD1D9F80000DC
:1009D000400207D42868800716D5E068012800D1B6
:1009E00012E033E1E068B8B10120C8F80000FFF779
:1009F00027FE064605E000BFFFF722FE801B022807
:100A0000C0D828688007F7D52868216920F0F80049
:100A100040EAC10028600DE0C8F800A0FFF710FE12
:100A2000064604E0FFF70CFE801B02281FD828684A
:100A30008007F7D42078000722D5864F8748616960
:100A4000703771B101210160FFF7FAFD064604E03D
:100A5000FFF7F6FD801B022809D838688007F7D514
:100A60000EE0C0F800A0FFF7EBFD064605E082E0CF
:100A7000FFF7E6FD801B02287DD838688007F7D491
:100A80002078400768D5DFF8CCB100270BF13C0B8C
:100A9000DBF80000C0000BD4DBF8001041F08051FF
:100AA000CBF80010DBF80000012700F08050009028
:100AB0006B4E3068C00510D4306840F480703060F0
:100AC000FFF7BEFD009005E0FFF7BAFD0099401A60
:100AD000022850D83068C005F6D55E4EA0686C3646
:100AE00001280FD00528306810D020F001003060B8
:100AF000306820F004003060A068B8B1FFF7A0FDB6
:100B000000900FE0306840F00100F4E740F004008E
:100B10003060F7E7FFF794FD0099411A41F2883001
:100B2000814266D830688007F4D50EE0FFF788FD73
:100B3000009007E0FFF784FD0099411A41F28830E8
:100B4000814256D830688007F4D42FB1DBF800100A
:100B500021F08051CBF80010A069C8B33D49091DB0
:100B60000968C1F3810102294AD00228504607D002
:100B7000C8F8600000E03CE0FFF762FD04463BE09F
:100B80004746C8F86000FFF75BFD064605E000BF7A
:100B9000FFF756FD801B02282BD828688001F7D468
:100BA000D4E907010843A16A2E4A490802EB014132
:100BB000626A41EA8211084394F82C1040EA01610C
:100BC000C9F8001001203866FFF73AFD044606E038
:100BD0003EE000BFFFF734FD001B022809D828685B
:100BE0008001F7D534E000BFFFF72AFD001B022883
:100BF00002D90320BDE8F88F28688001F4D427E0EB
:100C00000128F7D0D9F80000E26900F48001914290
:100C10001CD1226A00F03F01914217D147F6C07102
:100C2000626A0140B1EB821F10D1A26A4FF0FF331C
:100C300000F4403103EB5202B1EB024F06D194F8BD
:100C40002C1000F07060B0EB016F01D00120D1E7F3
:100C50000020CFE70438024000004742800E4742A0
:100C6000007000400000FFFF10B5401EB0F1807F13
:100C700001D3012010BD4FF0E02460610F21601707
:100C800000F009FB0020A06107202061002010BDBA
:100C9000FEE700000D4808B5016841F0040101605D
:100CA000016801F004010091016841F080010160D8
:100CB000016801F080010091016841F001010160CB
:100CC000006800F00100009008BD000030380240CC
:100CD000FEE7FEE770B5002404F1B000C0B20021C9
:100CE00000F04AFA0021022000F046FA002110200C
:100CF00000F042FA00250121002000F03DFA6D1CB1
:100D0000EDB2802DF7D3641CE4B2082CE4D370BD9F
:100D10002DE9F04798461746824600260C46DDF836
:100D2000209011E02146504600F026F9554607E094
:100D300019F806000121761C00F01EFA6D1CEDB2B8
:100D4000BD42F5D3641CE4B24445EBD3BDE8F08763
:100D500010B57F2816D83F2914D80723A3EBD10359
:100D600001F00701C1F107040121A140064CDBB2EB
:100D700004EBC000002AC25CC9B201D00A4300E003
:100D80008A43C25410BD00001400002070B56548AD
:100D900086B0016841F0010101600068012400F0A3
:100DA000010005902020CDE900045F4E0225694630
:100DB0003046CDE90245FFF74DFB1020CDE9000498
:100DC00069463046CDE90245FFF744FBCDE90054C2
:100DD00069463046CDE90245FFF73CFB0420CDE9EA
:100DE000000469463046CDE90245FFF733FB082091
:100DF000CDE9000469463046CDE90245FFF72AFBFC
:100E0000012220213046FFF715FC01221021304637
:100E1000FFF710FC012202213046FFF70BFC0122F4
:100E200004213046FFF706FC012208213046FFF777
:100E300001FC6420FFF7FCFA002208213046FFF78E
:100E4000F9FB6420FFF7F4FA012208213046FFF78E
:100E5000F1FB0021AE2000F08FF90021D52000F039
:100E60008BF90021502000F087F90021A82000F024
:100E700083F900213F2000F07FF90021D32000F00A
:100E80007BF90021084600F077F90021402000F0AE
:100E900073F900218D2000F06FF90021142000F07B
:100EA0006BF90021202000F067F90021022000F0FA
:100EB00063F90021A12000F05FF90021C02000F0BB
:100EC0005BF90021DA2000F057F90021122000F030
:100ED00053F90021812000F04FF90021EF2000F0AC
:100EE0004BF90021D92000F047F90021F12000F052
:100EF00043F90021DB2000F03FF90021302000F011
:100F00003BF90021A42000F037F90021A62000F0D1
:100F100033F90021AF2000F02FF9FFF7DBFE06B018
:100F200070BD0000303802400000024070B5114E24
:100F3000002400BF04F1B000C0B2002100F01CF991
:100F40000021084600F018F90021102000F014F9E3
:100F50005FF0000506EBC5000121005D00F00CF913
:100F60006D1CEDB2802DF5D3641CE4B2082CE1D3E6
:100F700070BD00001400002010B50446B031C8B2A6
:100F8000002100F0F9F8102040EA1410002100F0D0
:100F9000F3F804F00F00BDE8104040F0010000211C
:100FA00000F0EAB82DE9F04115460E460746FFF776
:100FB000E3FF0F48002400EB85150121285D00F0B8
:100FC000DBF8641CE4B2102CF7D3761CF1B238467F
:100FD000FFF7D2FF00242819012190F8200000F02B
:100FE000CBF8641CE4B2102CF5D3BDE8F08100000E
:100FF000B62F00082DE9FF4F1D460C4689465807BD
:1010000000D0012000EBD500690810FB01F0203A68
:1010100000F0FF0A02F0FF0B00263BE00C2D0FD082
:10102000102D13D0182D37D11C490BEBCB0001EB41
:1010300080004FF00008875D38060BD50D9A0CE054
:1010400017480BEB4B0100EB8100F2E7154901EB70
:101050000B10EEE70D9890B1002221460098FFF7A3
:1010600077FE7806641C070EE4B2A4EB0900A842E0
:1010700007D100984C46401CC0B2009008E0012205
:10108000EBE708F1010000F0FF08B8F1080FD3D337
:10109000761CF6B25645C1D3BDE8FF8F5A22000830
:1010A000F61700086A1C00082DE9FF4F81B00026E2
:1010B000DDF838A01D469346814634464FF00108BE
:1010C0004FEA5A0727E0281B401EC1B20A2000F051
:1010D00085F9BBFBF0F00A21B0FBF1F201FB120035
:1010E00026B9691E8C4201DA48B101263030C2B2FD
:1010F00007FB0490C0B25346CDF8008006E007FB22
:101100000490C0B253462022CDF800800299FFF728
:1011100071FF641CE4B2AC42D5D305B0BDE8F08FDA
:101120002DE9F84F04461F46802016460D46A0EBD9
:101130005709C3F140084FF0010A16E0A14502D259
:101140000024E819C5B2A84503DA00242546FFF7B4
:10115000C1FDCDF800A032783B4629462046FFF776
:1011600049FF04EB5700C4B2761C307820385E2863
:10117000E4D9BDE8F88F000070B51A4E054609B1F4
:10118000012200E0002210213046FFF753FA00222E
:1011900020213046FFF74EFA00240022022130467B
:1011A000FFF748FA280601D5012200E000220421B9
:1011B0003046FFF73FFA012202213046FFF73AFAA4
:1011C0006806641C050EE4B2082CE6D30122202137
:1011D0003046FFF72FFA3046BDE87040012210215B
:1011E000FFF728BA0000024070477047FFF72EBA99
:1011F00030B593B030216846FFF7B3F814210CA83E
:10120000FFF7AFF81D480025016841F080510160EB
:10121000006800F0805011901948016821F44041A5
:1012200041F4004101600068022400F44040119044
:1012300001200090000401908001CDE906401920B2
:101240000890A820CDE9090404200B906846FFF718
:1012500055FB08B172B6FEE70CA90F2081E83100FA
:101260004FF48050CDE90F0502210CA8FFF77AFA60
:10127000002801D072B6FEE713B030BD40380240FE
:10128000007000400248016841F47001016070473D
:1012900088ED00E0FEE70907090E002804DB00F1F5
:1012A000E02080F80014704700F00F0000F1E0200B
:1012B00080F8141D7047000008B5FFF7CFF9FFF75D
:1012C00097FFFFF7E7FCFFF761FDFFF703FD002243
:1012D00006211046FFF766FE012206210F20FFF7C8
:1012E00061FE022206211E20FFF75CFE4FF47A7495
:1012F0002046FFF79DF8FFF7EDFC274800210090FE
:10130000082380220846FFF703FD2046FFF790F8E8
:10131000FFF7E0FC0021182320A20846FFF700FF9A
:10132000102321A218210020FFF7FAFE0C2322A28D
:1013300028210020FFF7F4FE0C2323A234210020F3
:10134000FFF7EEFE0C2322A234214020FFF7E8FE37
:10135000FFF7ECFD204C2025012625700C274FF4CB
:10136000FA7800960C23227834212420FFF742FEDD
:1013700000970323227834215E20FFF795FEFFF7C4
:10138000D5FD2078401CC0B220707E2800D9257081
:101390004046FFF74DF8E4E7F6130008414C494595
:1013A0004E54454B00000000302E393627204F4C5C
:1013B000454420544553540041544F4D2032303160
:1013C000372F342F3800000041534349493A000079
:1013D000434F44453A00000000000020024601202F
:1013E00000E05043491EC9B2FBD270474FF0407035
:1013F000E1EE100A7047000000000000000000004D
:10140000000000000080E0F0FCFEFF7FFFFEFCF02B
:10141000E080000000000000000000000000000E5E
:101420000E0ECEFEFE7E1C1C7CFCFCDC1C1C0E1F6B
:101430001E3E7CF8F8F0E0C0800000000000FFFFD6
:10144000FF0070707070707070FFFFFFFF70707041
:101450007070707000C0C0CEC7C7C70FFFFEFC0E13
:101460000F1EFCFCF0800000FCFEFE0E1E7E3C20E9
:1014700000000000000000387CFCFCFCFCFC7C7CD4
:101480007C7C7C7C7F7F3F1F0F0301000003071FD4
:101490003F7F7F7C7C7C7C7C7CFCFCFCFCFCFC3807
:1014A000007F7F7F7777777777777F7F7F7F0008F1
:1014B0001E3E3C78F8F1E3C3810060E0C000FFFF0E
:1014C000FF0080EEEEEEEECECEFFBFBFFFCECECE63
:1014D000EEEEEEC00001F9F9F93939F8FFFF3F40AF
:1014E00077F7E7E7E7C7C7E7F7F77777F7F7C700D3
:1014F00000000000000000000001078FFFFFFFFE5A
:10150000F860000000000000000000000000000083
:10151000000000000060F8FCFFFFFF9F07010000D3
:101520007777777777FFFFFFFF7777777777700C9D
:101530001E1E3C7C78F1E1E34100000F0700FFFF35
:10154000FF1E0EECE0E8FDFFFFEFE7E7E7EFFFFF30
:10155000FCF8F0000000EFEFEFE0E0FFFFFF001805
:101560003838B8F8FFFF7F7777777F7EEFE5610047
:1015700000000000000000C0E0F8FEFFFFFFEFE702
:10158000E1E0E0E0E0E0C08000000000000000805A
:10159000C0E0E0E0E0E0E1E3EFFFFFFFFEF8F0C0D5
:1015A0000000000000010101010000000000000037
:1015B0000000000000000100000000000000010128
:1015C000010000000000000000000000000000001A
:1015D000000000000000000000000000000000000B
:1015E00000000001010100000000000000000000F8
:1015F00000000000000000010303030303030303D2
:1016000003030303071F3FFFFFFCF8E0F8FCFFFFA5
:101610007F1F070303030303030303030303030100
:1016200000000000000000000000000000000000BA
:1016300000000000000000000000000000000000AA
:10164000000000000000000000000000000000009A
:10165000000000000000000000000000000000008A
:10166000000000000000000000000000000000007A
:101670000000000000000000000000203090F0702A
:101680007050D0101010903021674F0F0F070300DB
:10169000000000F0000000000000F000000000006A
:1016A000000000000000000000800000001010306A
:1016B000E08000C08000000000C040C080800000CA
:1016C00000E0F080000000000000C0404060E0004A
:1016D0000030E000000000303000000080E03010FA
:1016E0001030E000003078C8687858C00000000072
:1016F000000000000000000000000000011D24A404
:10170000ACBC1400000079C1030604000000003CDA
:10171000000000FF0001794149C9DFCDE5A02000AC
:10172000000000000000000000F90D0509F90B0A97
:10173000080F000819BBEA6EEC2F2C000003000014
:101740000000073FFEF8E0800000818183C1414036
:101750004000070000000000C0C0E0A020230202FB
:1017600002C2C340404040030202020300000000E6
:101770000000000000000000000000000405051F3C
:10178000040404000000000300000000000000004A
:101790000000000F0000000001050404040703001E
:1017A0000000000000000000030206040700000023
:1017B000000001010103070D01010000000000000D
:1017C00000000000010F0F07000000090B0E0000D1
:1017D0000000070D090D07000008080F03000008AE
:1017E000181019090F0000000000000000000000A0
:1017F00000000000000000000000000000000000E9
:101800000000000000003F40000000000000000059
:101810003000400030004000000009000BC03D00D7
:101820000BC03D00090018C024407FE022403180F9
:101830000000180024C01B000D803240018003808E
:101840001C4027401C800740004010006000000042
:101850000000000000000000000000001F80204089
:1018600040200000402020401F80000000000900B0
:1018700006001F80060009000000040004003F80ED
:1018800004000400000000100060000000000000E0
:101890000000040004000400040004000000000034
:1018A00000400000000000000000002001C0060011
:1018B0003800400000001F802040204020401F8052
:1018C0000000000010403FC000400000000018C0B1
:1018D0002140224024401840000010802040244035
:1018E00024401B80000002000D0011003FC0014099
:1018F00000003C80244024402440238000001F80BE
:10190000244024403440038000003000200027C0E1
:101910003800200000001B802440244024401B800D
:1019200000001C0022C0224022401F800000000056
:1019300000000840000000000000000000000460FB
:10194000000000000000000004000A0011002080D8
:1019500040400900090009000900090000000000DA
:101960004040208011000A0004001800200023409D
:101970002400180000001F802040274029401F40FD
:101980000000004007C039000F0001C000402040A7
:101990003FC0244024401B8000001F802040204086
:1019A00020403080000020403FC0204020401F8069
:1019B000000020403FC024402E4030C000002040A6
:1019C0003FC024402E00300000000F001080204057
:1019D00022403380020020403FC0040004003FC08A
:1019E0002040204020403FC02040204000000060B8
:1019F000202020203FC02000200020403FC0244065
:101A00000B0030C0204020403FC02040004000403C
:101A100000C03FC03C0003C03C003FC0000020406D
:101A20003FC00C4023003FC020001F8020402040CA
:101A300020401F80000020403FC0244024001800A8
:101A400000001F802140214020E01FA00000204016
:101A50003FC02440260019C0004018C02440244044
:101A6000224031800000300020403FC02040300044
:101A7000000020003F80004000403F802000200008
:101A80003E0001C0070038002000380007C03C00BD
:101A900007C038000000204039C0060039C020408F
:101AA00000002000384007C03840200000003040CF
:101AB00021C02640384020C00000000000007FE028
:101AC000402040200000000070000C000380004017
:101AD00000000000402040207FE0000000000000E7
:101AE0002000400020000000000000100010001046
:101AF0000010001000100000000040000000000076
:101B00000000000002800540054003C000402000A6
:101B10003FC00440044003800000000003800440F4
:101B200004400640000000000380044024403FC001
:101B30000040000003800540054003400000000015
:101B400004401FC0244024402000000002E0055053
:101B500005500650042020403FC00440040003C04C
:101B600000400000044027C00040000000000010BA
:101B70000010041027E00000000020403FC001409A
:101B8000070004C00440204020403FC00040004007
:101B9000000007C0040007C0040003C000000440A8
:101BA00007C00440040003C000400000038004405C
:101BB000044003800000041007F004500440038038
:101BC0000000000003800440045007F000100440AF
:101BD00007C0024004000400000000000640054069
:101BE000054004C00000000004001F8004400040C5
:101BF0000000040007800040044007C000400400CB
:101C0000070004C0018006000400060001C00700B0
:101C100001C006000000044006C0010006C00440E8
:101C200000000410071004E001800600040000001A
:101C3000044005C00640044000000000000004000D
:101C40007BE040200000000000000000FFF00000EA
:101C50000000000040207BE0040000000000400085
:101C60008000400020002000400000000000000034
:101C70000000000000000000000000000000000064
:101C80001FCC000C00000000000000000800300025
:101C900060000800300060000000022003FC1E20ED
:101CA000022003FC1E200220000000000E18110478
:101CB0003FFF10840C78000000000F0010840F38E4
:101CC00000C0077818840078000000780F8410C4E2
:101CD00011240E9800E400840008080068007000D9
:101CE00000000000000000000000000000000000F4
:101CF00007E0181820044002000000004002200401
:101D0000181807E0000000000000024002400180B7
:101D10000FF001800240024000000080008000803F
:101D20000FF800800080008000000001000D000E10
:101D300000000000000000000000000000800080A3
:101D4000008000800080008000800000000C000CFB
:101D50000000000000000000000000000006001865
:101D600000600180060018002000000007F008084D
:101D700010041004080807F000000000080408041C
:101D80001FFC000400040000000000000E0C1014F2
:101D90001024104411840E0C000000000C181004D4
:101DA0001104110412880C700000000000E00320F0
:101DB000042408241FFC0024000000001F98108445
:101DC00011041104108810700000000007F008884A
:101DD0001104110418880070000000001C0010009D
:101DE00010FC13001C001000000000000E3811440D
:101DF0001084108411440E38000000000700088C85
:101E000010441044088807F00000000000000000A3
:101E1000030C030C000000000000000000000001A3
:101E200001060000000000000000000000800140EA
:101E300002200410080810040000022002200220E2
:101E400002200220022002200000000010040808E6
:101E50000410022001400080000000000E0012006B
:101E6000100C106C10800F00000003E00C1813E43D
:101E7000142417C4082807D000000004003C03C441
:101E80001C40074000E4001C000410041FFC110467
:101E9000110411040E880070000003E00C181004F7
:101EA0001004100410081C10000010041FFC100483
:101EB00010041004080807F0000010041FFC1104AF
:101EC000110417C410040818000010041FFC1104AA
:101ED000110017C010000800000003E00C181004E7
:101EE000100410441C780040000010041FFC1084F3
:101EF0000080008010841FFC1004000010041004F7
:101F00001FFC100410040000000000030001100179
:101F100010011FFE10001000000010041FFC11042F
:101F200003801464181C1004000010041FFC10042B
:101F3000000400040004000C000010041FFC1F003B
:101F400000FC1F001FFC1004000010041FFC0C0408
:101F5000030000E010181FFC100007F00808100430
:101F600010041004080807F0000010041FFC10847F
:101F70001080108010800F00000007F00818102457
:101F80001024101C080A07F2000010041FFC1104A2
:101F9000110011C011300E0C000400000E1C1104C1
:101FA0001084108410441C38000018001000100425
:101FB0001FFC100410001800000010001FF810048F
:101FC0000004000410041FF8100010001E0011E0AF
:101FD000001C007013801C0010001FC0103C00E0AB
:101FE0001F0000E0103C1FC000001004180C163445
:101FF00001C001C01634180C100410001C0013049A
:1020000000FC13041C00100000000804101C1064E5
:10201000108413041C0410180000000000000000CD
:102020007FFE4002400240020000000030000C0031
:1020300003800060001C000300000000400240021A
:1020400040027FFE000000000000000000002000B1
:10205000400040004000200000000001000100019D
:1020600000010001000100010001000040004000EB
:102070002000000000000000000000000098012483
:1020800001440144014400FC000410001FFC0088CE
:102090000104010400880070000000000070008846
:1020A00001040104010400880000000000700088A1
:1020B0000104010411081FFC0004000000F80144A1
:1020C00001440144014400C800000000010401046F
:1020D0000FFC1104110411001800000000D60129A2
:1020E0000129012901C90106000010041FFC008418
:1020F00001000100010400FC0004000001041904B7
:1021000019FC0004000400000000000000030001AE
:102110000101190119FE0000000010041FFC002439
:10212000004001B4010C0104000000001004100480
:102130001FFC0004000400000000010401FC010475
:10214000010001FC0104010000FC010401FC008409
:1021500001000100010400FC0004000000F801047B
:1021600001040104010400F80000010101FF0085E1
:102170000104010400880070000000000070008865
:1021800001040104010501FF00010104010401FC37
:1021900000840104010001800000000000CC012443
:1021A0000124012401240198000000000100010025
:1021B00007F80104010400000000010001F8000418
:1021C00000040004010801FC00040100018001700A
:1021D000000C001001600180010001F0010C0030D2
:1021E00001C00030010C01F0010000000104018C6D
:1021F00000740170018C0104000001010181017172
:10220000000E001801600180010000000184010C33
:10221000013401440184010C0000000000000000B2
:10222000000001003EFC40024002000000000000EF
:102230000000FFFF0000000000000000400240021C
:102240003EFC010000000000000000006000800073
:10225000800040004000200020000000000000003E
:10226000000000000000000000000000000000006E
:10227000000000000000000000000000000000005E
:10228000000000000000000000000000000F803887
:102290000FFE380F80380000000000000000000032
:1022A00000000000000000000100000600000C001B
:1022B000003800003100000600000C00003800006B
:1022C0003000000000000000000061800067F80797
:1022D000F98000618000618000618000618000679A
:1022E000F807F98000618000000000000000000095
:1022F00001C0E003E0F00630080418081FFFFE04E8
:102300000E080787F00381E000000000000001F0E4
:1023100000060C00040408060C7001F9C0000E0051
:10232000003BE000EC18070808040C180003E0006C
:1023300000000001E00007F003F818041C0804176F
:102340000807E1D003C0E00023B0003C08002008EB
:102350000000100000000000000100003100003209
:1023600000001C0000000000000000000000000051
:10237000000000000000000000000000000000005D
:10238000000000000000000000007F0001FFC00707
:1023900080F00C0018100004200002000000000073
:1023A000002000021000040C00180780F001FFC09C
:1023B000007F00000000000000000000000000009E
:1023C0000000000000004200006600006600003CC3
:1023D0000000180003FFC0001800003C0000660069
:1023E0000066000042000000000008000008000035
:1023F000080000080000080001FFC00008000008F5
:1024000000000800000800000800000000000001B3
:1024100000003100003200001C000000000000003D
:1024200000000000000000000000000000000000AC
:102430000000080000080000080000080000080074
:102440000008000008000008000008000008000064
:10245000000000000000000000003800003800000C
:102460003800000000000000000000000000000034
:1024700000000000000000000000000600001C003A
:102480000070000180000E0000380000C00007004E
:10249000001C0000300000000000000000007F80F1
:1024A00001FFE0038070060018040008040008061D
:1024B000001803807001FFE0007F80000000000032
:1024C0000000000001000801000801000803FFF8F7
:1024D00007FFF800000800000800000800000000E6
:1024E000000000000001C03802C058040098040138
:1024F00018040218040418061C1803F81801E0F860
:1025000000000000000000000001C0E003C0F00473
:10251000000804080804080806180803F41801E76E
:10252000F00001E0000000000000000000000300D7
:10253000000D000011000061000081080301080780
:10254000FFF80FFFF800010800010800000000007C
:10255000000000E007FCD006080806100806100876
:10256000061008061838060FF00607C00000000025
:102570000000000000003F8001FFE00384300208FB
:1025800018041008041008041008071810030FF0AE
:102590000007C000000000000000000003C00007AA
:1025A00000000600000600F80607F806180006E01E
:1025B0000007000006000000000000000001E1E04C
:1025C00003F7F0063410041808041808040C080473
:1025D0000C0806161803F3F001C1E000000000002B
:1025E0000000F80003FC3003063804020804020867
:1025F0000402080404100308F001FFC0007F00007B
:1026000000000000000000000000000000000000CA
:1026100000007038007038007038000000000000C2
:1026200000000000000000000000000000000000AA
:10263000000000000000301A00301C000000000004
:10264000000000000000000000000000000000008A
:1026500000080000140000220000410000808001FA
:1026600000400200200400100800080000000000E4
:1026700000002100002100002100002100002100B5
:1026800000210000210000210000210000210000A5
:102690000000000000000000080008040010020014
:1026A0002001004000808000410000220000140052
:1026B00000080000000000000003C00004C0000487
:1026C0000000080038080F380808380810000C30DF
:1026D0000007E00003C000000000000000003F8091
:1026E00000FFE0038070020F1006708804C08804A9
:1026F0008308047F8802C09003012000FE40000090
:10270000080000180001F8003E0801C2000702009E
:1027100007E20000FE00001FC80001F800003800BA
:10272000000804000807FFF807FFF8040808040879
:102730000804080804080806180803F41801E7F05C
:102740000001E0000000000000003F8001FFE00306
:102750008070020018040008040008040008040047
:10276000100600200780C000000004000807FFF8E2
:1027700007FFF80400080400080400080400180219
:10278000001003807001FFE0007F80000000040063
:102790000807FFF807FFF8040808040808040808F9
:1027A000040808043E080400080600180100600040
:1027B000000004000807FFF807FFF80408080408F1
:1027C00000040800040800043E00060000060000A3
:1027D000018000000000000000003F8001FFE003D6
:1027E00080700600180400080402080402080203AE
:1027F000F00783F000020000020004000807FFF861
:1028000007FFF8040808000800000800000800009E
:10281000080004080807FFF807FFF8040008000094
:102820000000000004000804000804000807FFF886
:1028300007FFF80400080400080400080000000076
:102840000000000000000006000007000001040076
:102850000104000104000307FFFE07FFFC04000061
:1028600004000004000004000807FFF807FFF80454
:102870000C08001800003E0004C7800503C80600CD
:10288000F804003804001800000804000807FFF8E6
:1028900007FFF80400080000080000080000080016
:1028A000000800000800001800006000000004009C
:1028B0000807FFF807800807FC00007FC00003F846
:1028C0000007C000780007800807FFF807FFF8043A
:1028D000000804000807FFF807000803C00000E034
:1028E00000003800001E000007000001C00400F0D6
:1028F00007FFF8040000000000007F8001FFE003F4
:102900008070060018040008040008060018030080
:102910003001FFE0007F8000000004000807FFF89E
:1029200007FFF8040408040400040400040400047D
:102930000400060C0003F80001F000000000000095
:1029400000007F8001FFE00380700600880400889B
:102950000400C806003C03003E01FFE6007F84003F
:10296000000004000807FFF807FFF804080804083F
:1029700000040C00040F00040BC00610F003F03834
:1029800001E00800000800000001E0F803F0300654
:102990003010041808041808040C08040C08020677
:1029A000180207F00781E000000001800006000027
:1029B00004000004000004000807FFF807FFF80403
:1029C000000804000004000006000001800004006C
:1029D0000007FFE007FFF0040018000008000008EF
:1029E00000000800000800000804001007FFE004D1
:1029F000000004000006000007E00007FE00041FBE
:102A0000E00001F80000380001E0043E0007C000CB
:102A100006000004000004000007E00007FFC004F7
:102A20001FF80007C007F80007FF80043FF8000701
:102A3000C004F800070000040000000000040008C3
:102A400006001807C07805F1C8003E00001F80048A
:102A500063E80780F806001804000800000004007E
:102A60000006000007800007E008047C08001FF84B
:102A70000007F800180804E008070000060000043A
:102A800000000000000100080600380400F80403FC
:102A9000E8040F08047C0805F00807C008070018C0
:102AA00004006000000000000000000000000000C2
:102AB00000000000003FFFFE200002200002200076
:102AC00002200002200002000000000000000000C0
:102AD00008000007000000C00000380000060000E9
:102AE00001C000003000000E0000010000000000E6
:102AF000000000002000022000022000022000024E
:102B00002000023FFFFE0000000000000000000067
:102B1000000000000000000000000008000010009D
:102B2000003000002000003000001000000800000D
:102B30000000000000000000010000010000010092
:102B40000001000001000001000001000001000080
:102B50000100000100000100000100000000000071
:102B60000000002000002000001000001000000005
:102B70000000000000000000000000000000000055
:102B8000000000F00019F8001B18002208002608B9
:102B9000002408002410003FF8001FF8000008007F
:102BA000001800000004000007FFF80FFFF00018F5
:102BB00018001008002008002008003018001FF03E
:102BC000000FC00000000000000007C0001FF00060
:102BD0001830002008002008002008003C08001CD5
:102BE000100000600000000000000000000007C0AE
:102BF000001FF000381800200800200800200804FA
:102C0000101007FFF80FFFF0000010000000000098
:102C1000000000000007C0001FF000123000221862
:102C2000002208002208003208001E10000E2000BA
:102C3000000000000000200000200800200801FF24
:102C4000F803FFF8062008042008042008072000E5
:102C500003000000000000000000000E000E6E00E7
:102C60001FF30031B10020B10020B1003191001FED
:102C700013002E1E00200E0030000000000400088B
:102C800007FFF80FFFF800100800200000200000E8
:102C90002008003FF8001FF80000080000000000B6
:102CA00000000000002008002008002008063FF86F
:102CB000063FF800000800000800000800000000BF
:102CC00000000000000000000000030000030020DE
:102CD00001002001002003063FFE063FFC0000002B
:102CE00000000000000000000004000807FFF80FCB
:102CF000FFF8000188000300002FC00038F8002012
:102D0000380020080000080000000000000000005B
:102D100004000804000804000807FFF80FFFF8008B
:102D2000000800000800000800000000000000206B
:102D300008003FF8003FF8001008002000003FF8AE
:102D4000003FF8001008002000003FF8003FF800A6
:102D50000008000000002008003FF8003FF80010C5
:102D600008001000002000002008003FF8001FF8B5
:102D70000000080000000000000007C0000FF00085
:102D80001830003008002008002008003008001823
:102D900030000FF00007C00000000000000020011C
:102DA000003FFF003FFF0010110020090020080035
:102DB0002008003038001FF0000FC00000000000A5
:102DC000000007C0001FF00038180020080020088D
:102DD000002009001011001FFF003FFF000001004C
:102DE0000000002008002008002008003FF8003FF5
:102DF000F80008080010080020080020000030003B
:102E0000003000000000000000000000000C78000E
:102E10001E18003308002308002108002188002123
:102E2000980030F000386000000000000000200032
:102E300000200000200000FFF003FFF80020080041
:102E40002008002008000030000000000000000002
:102E500000002000003FF0007FF80000180000088C
:102E6000000008002010003FF8007FF00000100074
:102E70000000000000002000003000003C00003F87
:102E8000800023F0000078000070002380003C00E8
:102E9000003000002000002000003C00003FE00067
:102EA00023F80000E0002700003E00003FE0002182
:102EB000F80001E0003E00002000000000002008B3
:102EC000002008003838003E680027800003C80052
:102ED0002CF80038380020180020080000000000FE
:102EE00000002000003003003C01003F830023EC81
:102EF000000070002380003C000020000020000043
:102F00000000000000000000003808002038002009
:102F1000F80023E8002F88003E0800380800201839
:102F20000000700000000000000000000000000031
:102F300000000000000008000014001FF7FC300033
:102F40000620000200000000000000000000000059
:102F5000000000000000000000000000FFFFFF0074
:102F60000000000000000000000000000000000061
:102F7000000000002000023000061FF7FC001400D3
:102F80000008000000000000000000000000000039
:102F90000000000000180000600000400000400039
:102FA00000200000100000080000040000040000E1
:102FB0000C000010000002E3EB2E26262CECE405AA
:102FC0002163C68C383000000000000000000000C3
:102FD00000000000000020252525FDFD25252520D9
:102FE000040C1871670600000000000000000000DB
:102FF000000000000000808000FFFF08484848FFF4
:10300000FF484848080000000000000000000000E1
:10301000000000000000000707FFFF4D65735A4FD6
:103020004F5A736101010000000000000000000021
:1030300000000000000010181A3323FFFF4E7C70C0
:10304000407C7E424E4E0000000000000000000068
:10305000000000000000405F5F417F7F1111F3FA24
:103060003E2E2B272700000000000000000000007B
:1030700000000000000020E0C0FFFFC0C2222222AA
:10308000FEFE2222220200000000000000000000DC
:1030900000000000000008080BFFFF090A2222229E
:1030A000FEFE2222220200000000000000000000BC
:1030B00000000000000020E0C0FFFF889830E0C062
:1030C000FFFFC0E030100000000000000000000022
:1030D00000000000000008080BFFFF090808080BAB
:1030E000FFFF0B08080800000000000000000000BF
:1030F0000000000000000000F8F8101010FEFF11A2
:103100001111F9F90F0F000000000000000000008D
:1031100000000000000000001F1F111111FFFF112F
:1031200011111F1F0000000000000000000000003F
:1031300000000000000000000000000203FFFE008D
:10314000000000000000000000000000000000007F
:103150000000000000000141414141414147474D0D
:1031600059716141010100000000000000000000F1
:103170000000000000001070E0FFFF80A020202071
:1031800020FFFF4040400000000000000000000061
:103190000000000000002424257FFFC5444477334D
:1031A00000FFFF0000000000000000000000000021
:1031B000000000000000202263FFFE810103C2F630
:1031C0003C1C76E3810100000000000000000000CC
:1031D000000000000000080808FFFF091911111184
:1031E000FFFF11111110000000000000000000009E
:1031F000000000000000010103060C38F0C0C0F020
:10320000380C06030101000000000000000000006F
:1032100000000000000004040404040404FFFF0490
:103220000404040404040000000000000000000086
:10323000000000000000202020202022237F7EE0CC
:10324000A02020202020000000000000000000003E
:10325000000000000000020E8CE9690989E9690993
:103260001939E8CA0E0C0000000000000000000040
:10327000000000000000000000000000000001024B
:103280000304060708090000A83200080000002017
:1032900014000000D0010008BC3200081400002017
:1032A000640A0000EC0100080000000001000000BA
:0C32B00010000000000000000024F400EA
:040000050800019559
:00000001FF
